{
  "address": "0xA61291Aa73D7B8cf3447430DfB2BaB559F68ee52",
  "abi": [
    {
      "inputs": [
        {
          "internalType": "string",
          "name": "_uri",
          "type": "string"
        }
      ],
      "stateMutability": "nonpayable",
      "type": "constructor"
    },
    {
      "anonymous": false,
      "inputs": [
        {
          "indexed": true,
          "internalType": "address",
          "name": "account",
          "type": "address"
        },
        {
          "indexed": true,
          "internalType": "address",
          "name": "operator",
          "type": "address"
        },
        {
          "indexed": false,
          "internalType": "bool",
          "name": "approved",
          "type": "bool"
        }
      ],
      "name": "ApprovalForAll",
      "type": "event"
    },
    {
      "anonymous": false,
      "inputs": [
        {
          "indexed": true,
          "internalType": "address",
          "name": "addr",
          "type": "address"
        },
        {
          "indexed": false,
          "internalType": "enum Level",
          "name": "level",
          "type": "uint8"
        }
      ],
      "name": "ApprovalLevel",
      "type": "event"
    },
    {
      "anonymous": false,
      "inputs": [
        {
          "indexed": true,
          "internalType": "address",
          "name": "previousOwner",
          "type": "address"
        },
        {
          "indexed": true,
          "internalType": "address",
          "name": "newOwner",
          "type": "address"
        }
      ],
      "name": "OwnershipTransferred",
      "type": "event"
    },
    {
      "anonymous": false,
      "inputs": [
        {
          "indexed": false,
          "internalType": "uint256",
          "name": "id",
          "type": "uint256"
        },
        {
          "indexed": false,
          "internalType": "uint16",
          "name": "ratio",
          "type": "uint16"
        },
        {
          "indexed": false,
          "internalType": "address",
          "name": "receiver",
          "type": "address"
        }
      ],
      "name": "Royalty",
      "type": "event"
    },
    {
      "anonymous": false,
      "inputs": [
        {
          "indexed": true,
          "internalType": "address",
          "name": "operator",
          "type": "address"
        },
        {
          "indexed": true,
          "internalType": "address",
          "name": "from",
          "type": "address"
        },
        {
          "indexed": true,
          "internalType": "address",
          "name": "to",
          "type": "address"
        },
        {
          "indexed": false,
          "internalType": "uint256[]",
          "name": "ids",
          "type": "uint256[]"
        },
        {
          "indexed": false,
          "internalType": "uint256[]",
          "name": "values",
          "type": "uint256[]"
        }
      ],
      "name": "TransferBatch",
      "type": "event"
    },
    {
      "anonymous": false,
      "inputs": [
        {
          "indexed": true,
          "internalType": "address",
          "name": "operator",
          "type": "address"
        },
        {
          "indexed": true,
          "internalType": "address",
          "name": "from",
          "type": "address"
        },
        {
          "indexed": true,
          "internalType": "address",
          "name": "to",
          "type": "address"
        },
        {
          "indexed": false,
          "internalType": "uint256",
          "name": "id",
          "type": "uint256"
        },
        {
          "indexed": false,
          "internalType": "uint256",
          "name": "value",
          "type": "uint256"
        }
      ],
      "name": "TransferSingle",
      "type": "event"
    },
    {
      "anonymous": false,
      "inputs": [
        {
          "indexed": false,
          "internalType": "string",
          "name": "value",
          "type": "string"
        },
        {
          "indexed": true,
          "internalType": "uint256",
          "name": "id",
          "type": "uint256"
        }
      ],
      "name": "URI",
      "type": "event"
    },
    {
      "inputs": [
        {
          "internalType": "address",
          "name": "account",
          "type": "address"
        },
        {
          "internalType": "uint256",
          "name": "id",
          "type": "uint256"
        }
      ],
      "name": "balanceOf",
      "outputs": [
        {
          "internalType": "uint256",
          "name": "",
          "type": "uint256"
        }
      ],
      "stateMutability": "view",
      "type": "function"
    },
    {
      "inputs": [
        {
          "internalType": "address[]",
          "name": "accounts",
          "type": "address[]"
        },
        {
          "internalType": "uint256[]",
          "name": "ids",
          "type": "uint256[]"
        }
      ],
      "name": "balanceOfBatch",
      "outputs": [
        {
          "internalType": "uint256[]",
          "name": "",
          "type": "uint256[]"
        }
      ],
      "stateMutability": "view",
      "type": "function"
    },
    {
      "inputs": [
        {
          "internalType": "uint256",
          "name": "_id",
          "type": "uint256"
        }
      ],
      "name": "info",
      "outputs": [
        {
          "internalType": "address",
          "name": "_receiver",
          "type": "address"
        },
        {
          "internalType": "uint16",
          "name": "_ratio",
          "type": "uint16"
        }
      ],
      "stateMutability": "view",
      "type": "function"
    },
    {
      "inputs": [
        {
          "internalType": "uint256[]",
          "name": "_ids",
          "type": "uint256[]"
        }
      ],
      "name": "infoBatch",
      "outputs": [
        {
          "internalType": "address[]",
          "name": "_receivers",
          "type": "address[]"
        },
        {
          "internalType": "uint16[]",
          "name": "_ratios",
          "type": "uint16[]"
        }
      ],
      "stateMutability": "view",
      "type": "function"
    },
    {
      "inputs": [
        {
          "internalType": "address",
          "name": "_account",
          "type": "address"
        },
        {
          "internalType": "address",
          "name": "_operator",
          "type": "address"
        }
      ],
      "name": "isApprovedForAll",
      "outputs": [
        {
          "internalType": "bool",
          "name": "",
          "type": "bool"
        }
      ],
      "stateMutability": "view",
      "type": "function"
    },
    {
      "inputs": [
        {
          "internalType": "uint256",
          "name": "_id",
          "type": "uint256"
        }
      ],
      "name": "isMined",
      "outputs": [
        {
          "internalType": "bool",
          "name": "_mined",
          "type": "bool"
        }
      ],
      "stateMutability": "view",
      "type": "function"
    },
    {
      "inputs": [
        {
          "internalType": "uint256[]",
          "name": "_ids",
          "type": "uint256[]"
        }
      ],
      "name": "isMinedBatch",
      "outputs": [
        {
          "internalType": "bool[]",
          "name": "_mineds",
          "type": "bool[]"
        }
      ],
      "stateMutability": "view",
      "type": "function"
    },
    {
      "inputs": [
        {
          "internalType": "address",
          "name": "_miner",
          "type": "address"
        }
      ],
      "name": "isMiner",
      "outputs": [
        {
          "internalType": "bool",
          "name": "",
          "type": "bool"
        }
      ],
      "stateMutability": "view",
      "type": "function"
    },
    {
      "inputs": [
        {
          "internalType": "address",
          "name": "_super",
          "type": "address"
        }
      ],
      "name": "isSuper",
      "outputs": [
        {
          "internalType": "bool",
          "name": "",
          "type": "bool"
        }
      ],
      "stateMutability": "view",
      "type": "function"
    },
    {
      "inputs": [
        {
          "internalType": "address",
          "name": "_to",
          "type": "address"
        },
        {
          "internalType": "uint256",
          "name": "_id",
          "type": "uint256"
        },
        {
          "internalType": "uint256",
          "name": "_amount",
          "type": "uint256"
        },
        {
          "internalType": "uint16",
          "name": "_royaltyRatio",
          "type": "uint16"
        },
        {
          "internalType": "string",
          "name": "_tokenURI",
          "type": "string"
        },
        {
          "internalType": "bytes",
          "name": "_data",
          "type": "bytes"
        }
      ],
      "name": "mint",
      "outputs": [],
      "stateMutability": "nonpayable",
      "type": "function"
    },
    {
      "inputs": [
        {
          "internalType": "address",
          "name": "_to",
          "type": "address"
        },
        {
          "internalType": "uint256[]",
          "name": "_ids",
          "type": "uint256[]"
        },
        {
          "internalType": "uint256[]",
          "name": "_amounts",
          "type": "uint256[]"
        },
        {
          "internalType": "uint16[]",
          "name": "_royaltyRatios",
          "type": "uint16[]"
        },
        {
          "internalType": "string[]",
          "name": "_tokenURIs",
          "type": "string[]"
        },
        {
          "internalType": "bytes",
          "name": "_data",
          "type": "bytes"
        }
      ],
      "name": "mintBatch",
      "outputs": [],
      "stateMutability": "nonpayable",
      "type": "function"
    },
    {
      "inputs": [],
      "name": "owner",
      "outputs": [
        {
          "internalType": "address",
          "name": "",
          "type": "address"
        }
      ],
      "stateMutability": "view",
      "type": "function"
    },
    {
      "inputs": [],
      "name": "renounceOwnership",
      "outputs": [],
      "stateMutability": "nonpayable",
      "type": "function"
    },
    {
      "inputs": [
        {
          "internalType": "uint256",
          "name": "_id",
          "type": "uint256"
        },
        {
          "internalType": "uint256",
          "name": "_price",
          "type": "uint256"
        }
      ],
      "name": "royaltyInfo",
      "outputs": [
        {
          "internalType": "address",
          "name": "_receiver",
          "type": "address"
        },
        {
          "internalType": "uint256",
          "name": "_royalty",
          "type": "uint256"
        }
      ],
      "stateMutability": "view",
      "type": "function"
    },
    {
      "inputs": [
        {
          "internalType": "uint256[]",
          "name": "_ids",
          "type": "uint256[]"
        },
        {
          "internalType": "uint256",
          "name": "_price",
          "type": "uint256"
        }
      ],
      "name": "royaltyInfoBatch",
      "outputs": [
        {
          "internalType": "address[]",
          "name": "_receivers",
          "type": "address[]"
        },
        {
          "internalType": "uint256[]",
          "name": "_royaltys",
          "type": "uint256[]"
        }
      ],
      "stateMutability": "view",
      "type": "function"
    },
    {
      "inputs": [
        {
          "internalType": "address",
          "name": "from",
          "type": "address"
        },
        {
          "internalType": "address",
          "name": "to",
          "type": "address"
        },
        {
          "internalType": "uint256[]",
          "name": "ids",
          "type": "uint256[]"
        },
        {
          "internalType": "uint256[]",
          "name": "amounts",
          "type": "uint256[]"
        },
        {
          "internalType": "bytes",
          "name": "data",
          "type": "bytes"
        }
      ],
      "name": "safeBatchTransferFrom",
      "outputs": [],
      "stateMutability": "nonpayable",
      "type": "function"
    },
    {
      "inputs": [
        {
          "internalType": "address",
          "name": "from",
          "type": "address"
        },
        {
          "internalType": "address",
          "name": "to",
          "type": "address"
        },
        {
          "internalType": "uint256",
          "name": "id",
          "type": "uint256"
        },
        {
          "internalType": "uint256",
          "name": "amount",
          "type": "uint256"
        },
        {
          "internalType": "bytes",
          "name": "data",
          "type": "bytes"
        }
      ],
      "name": "safeTransferFrom",
      "outputs": [],
      "stateMutability": "nonpayable",
      "type": "function"
    },
    {
      "inputs": [
        {
          "internalType": "address",
          "name": "operator",
          "type": "address"
        },
        {
          "internalType": "bool",
          "name": "approved",
          "type": "bool"
        }
      ],
      "name": "setApprovalForAll",
      "outputs": [],
      "stateMutability": "nonpayable",
      "type": "function"
    },
    {
      "inputs": [
        {
          "internalType": "address",
          "name": "_addr",
          "type": "address"
        },
        {
          "internalType": "enum Level",
          "name": "_level",
          "type": "uint8"
        }
      ],
      "name": "setLevel",
      "outputs": [],
      "stateMutability": "nonpayable",
      "type": "function"
    },
    {
      "inputs": [
        {
          "internalType": "uint256",
          "name": "_id",
          "type": "uint256"
        },
        {
          "internalType": "uint16",
          "name": "_ratio",
          "type": "uint16"
        }
      ],
      "name": "setRoyalty",
      "outputs": [],
      "stateMutability": "nonpayable",
      "type": "function"
    },
    {
      "inputs": [
        {
          "internalType": "uint256[]",
          "name": "_ids",
          "type": "uint256[]"
        },
        {
          "internalType": "uint16[]",
          "name": "_ratios",
          "type": "uint16[]"
        }
      ],
      "name": "setRoyaltyBatch",
      "outputs": [],
      "stateMutability": "nonpayable",
      "type": "function"
    },
    {
      "inputs": [
        {
          "internalType": "bytes4",
          "name": "interfaceId",
          "type": "bytes4"
        }
      ],
      "name": "supportsInterface",
      "outputs": [
        {
          "internalType": "bool",
          "name": "",
          "type": "bool"
        }
      ],
      "stateMutability": "view",
      "type": "function"
    },
    {
      "inputs": [
        {
          "internalType": "uint256",
          "name": "_tokenId",
          "type": "uint256"
        }
      ],
      "name": "tokenURI",
      "outputs": [
        {
          "internalType": "string",
          "name": "",
          "type": "string"
        }
      ],
      "stateMutability": "view",
      "type": "function"
    },
    {
      "inputs": [
        {
          "internalType": "address",
          "name": "newOwner",
          "type": "address"
        }
      ],
      "name": "transferOwnership",
      "outputs": [],
      "stateMutability": "nonpayable",
      "type": "function"
    },
    {
      "inputs": [
        {
          "internalType": "uint256",
          "name": "",
          "type": "uint256"
        }
      ],
      "name": "uri",
      "outputs": [
        {
          "internalType": "string",
          "name": "",
          "type": "string"
        }
      ],
      "stateMutability": "view",
      "type": "function"
    }
  ],
  "transactionHash": "0x1824c5438d13081d5208bc1255c2d79f49a5e03b01a197f3546d117b999fad1e",
  "args": [
    "https://ipfs.io/ipns/k51qzi5uqu5dgxi52mqszdhfyd6tamuaughjz6dgzas0doyl4o5bgv5r5azhlp/{id}.json"
  ],
  "solcInputHash": "1ff926bd33e0f53ceab33c80ef7286d8",
  "bytecode": "0x60806040523480156200001157600080fd5b5060405162002f7d38038062002f7d83398101604081905262000034916200017e565b8062000040816200006d565b506200004c3362000086565b50336000908152600560205260409020805460ff19166002179055620002a7565b805162000082906002906020840190620000d8565b5050565b600480546001600160a01b038381166001600160a01b0319831681179093556040519116919082907f8be0079c531659141344cd1fd0a4f28419497f9722a3daafe3b4186f6b6457e090600090a35050565b828054620000e69062000254565b90600052602060002090601f0160209004810192826200010a576000855562000155565b82601f106200012557805160ff191683800117855562000155565b8280016001018555821562000155579182015b828111156200015557825182559160200191906001019062000138565b506200016392915062000167565b5090565b5b8082111562000163576000815560010162000168565b6000602080838503121562000191578182fd5b82516001600160401b0380821115620001a8578384fd5b818501915085601f830112620001bc578384fd5b815181811115620001d157620001d162000291565b604051601f8201601f19908116603f01168101908382118183101715620001fc57620001fc62000291565b81604052828152888684870101111562000214578687fd5b8693505b8284101562000237578484018601518185018701529285019262000218565b828411156200024857868684830101525b98975050505050505050565b600181811c908216806200026957607f821691505b602082108114156200028b57634e487b7160e01b600052602260045260246000fd5b50919050565b634e487b7160e01b600052604160045260246000fd5b612cc680620002b76000396000f3fe608060405234801561001057600080fd5b50600436106101725760003560e01c8063715018a6116100de578063c3c8df9911610097578063e44a316911610071578063e44a3169146103e7578063e985e9c5146103fa578063f242432a1461040d578063f2fde38b1461042057600080fd5b8063c3c8df99146103a0578063c87b56dd146103b3578063d9e16218146103c657600080fd5b8063715018a6146103135780638031ae9b1461031b57806386384e4a1461032e5780638da5cb5b14610351578063a22cb4651461036c578063b645901c1461037f57600080fd5b80632a55205a116101305780632a55205a146102285780632e3405991461025a5780632eb2c2d6146102ba5780634e1273f4146102cd578063526858a1146102ed578063701b70ac1461030057600080fd5b8062fdd58e1461017757806301ffc9a71461019d57806302898e59146101c05780630d801835146101e05780630e89341c146101f557806311e3d8d714610215575b600080fd5b61018a610185366004612354565b610433565b6040519081526020015b60405180910390f35b6101b06101ab36600461257d565b6104ca565b6040519015158152602001610194565b6101d36101ce3660046124ab565b610510565b60405161019491906127eb565b6101f36101ee3660046124e5565b610601565b005b6102086102033660046125b5565b61071a565b604051610194919061287f565b6101f36102233660046125cd565b6107ae565b61023b6102363660046125ef565b610800565b604080516001600160a01b039093168352602083019190915201610194565b6102986102683660046125b5565b6000908152600660209081526040808320546007909252909120546001600160a01b039091169161ffff90911690565b604080516001600160a01b03909316835261ffff909116602083015201610194565b6101f36102c836600461210b565b610818565b6102e06102db3660046123e1565b6108af565b6040516101949190612831565b6101f36102fb366004612212565b610a10565b6101b061030e3660046120bf565b610c6d565b6101f3610c78565b6101f361032936600461237d565b610cae565b6101b061033c3660046125b5565b60009081526008602052604090205460ff1690565b6004546040516001600160a01b039091168152602001610194565b6101f361037a3660046122ec565b610dd0565b61039261038d36600461253b565b610ea7565b6040516101949291906127bd565b6101b06103ae3660046120bf565b61101b565b6102086103c13660046125b5565b611026565b6103d96103d43660046124ab565b611043565b604051610194929190612770565b6101f36103f5366004612326565b6111de565b6101b06104083660046120d9565b611295565b6101f361041b3660046121b0565b6112d7565b6101f361042e3660046120bf565b61135e565b60006001600160a01b0383166104a45760405162461bcd60e51b815260206004820152602b60248201527f455243313135353a2062616c616e636520717565727920666f7220746865207a60448201526a65726f206164647265737360a81b60648201526084015b60405180910390fd5b506000908152602081815260408083206001600160a01b03949094168352929052205490565b60006001600160e01b03198216632d91640760e21b14806104fb57506001600160e01b0319821663152a902d60e11b145b8061050a575061050a826113f9565b92915050565b606081516001600160401b0381111561053957634e487b7160e01b600052604160045260246000fd5b604051908082528060200260200182016040528015610562578160200160208202803683370190505b50905060005b82518110156105fb576008600084838151811061059557634e487b7160e01b600052603260045260246000fd5b6020026020010151815260200190815260200160002060009054906101000a900460ff168282815181106105d957634e487b7160e01b600052603260045260246000fd5b91151560209283029190910190910152806105f381612b92565b915050610568565b50919050565b80518251146106225760405162461bcd60e51b815260040161049b906129e7565b60005b82518110156107155760006006600085848151811061065457634e487b7160e01b600052603260045260246000fd5b6020908102919091018101518252810191909152604001600020546001600160a01b031690503381148061068d575061068d8133611295565b6106a95760405162461bcd60e51b815260040161049b9061291f565b6107028483815181106106cc57634e487b7160e01b600052603260045260246000fd5b6020026020010151828585815181106106f557634e487b7160e01b600052603260045260246000fd5b6020026020010151611449565b508061070d81612b92565b915050610625565b505050565b60606002805461072990612b31565b80601f016020809104026020016040519081016040528092919081815260200182805461075590612b31565b80156107a25780601f10610777576101008083540402835291602001916107a2565b820191906000526020600020905b81548152906001019060200180831161078557829003601f168201915b50505050509050919050565b6000828152600660205260409020546001600160a01b0316338114806107d957506107d98133611295565b6107f55760405162461bcd60e51b815260040161049b9061291f565b610715838284611449565b60008061080d848461158a565b915091509250929050565b6001600160a01b03851633148061083457506108348533611295565b61089b5760405162461bcd60e51b815260206004820152603260248201527f455243313135353a207472616e736665722063616c6c6572206973206e6f74206044820152711bdddb995c881b9bdc88185c1c1c9bdd995960721b606482015260840161049b565b6108a885858585856115cc565b5050505050565b606081518351146109145760405162461bcd60e51b815260206004820152602960248201527f455243313135353a206163636f756e747320616e6420696473206c656e677468604482015268040dad2e6dac2e8c6d60bb1b606482015260840161049b565b600083516001600160401b0381111561093d57634e487b7160e01b600052604160045260246000fd5b604051908082528060200260200182016040528015610966578160200160208202803683370190505b50905060005b8451811015610a08576109cd85828151811061099857634e487b7160e01b600052603260045260246000fd5b60200260200101518583815181106109c057634e487b7160e01b600052603260045260246000fd5b6020026020010151610433565b8282815181106109ed57634e487b7160e01b600052603260045260246000fd5b6020908102919091010152610a0181612b92565b905061096c565b509392505050565b60013360009081526005602052604090205460ff166002811115610a4457634e487b7160e01b600052602160045260246000fd5b1015610a925760405162461bcd60e51b815260206004820152601f60248201527f417070726f76616c3a206f6e6c79206d696e657220746f206f70657261746500604482015260640161049b565b610a9e86868684611784565b8251855114610abf5760405162461bcd60e51b815260040161049b906129e7565b60005b8551811015610c645760086000878381518110610aef57634e487b7160e01b600052603260045260246000fd5b60209081029190910181015182528101919091526040016000205460ff1615610b5a5760405162461bcd60e51b815260206004820152601d60248201527f4e4654313135353a2074686520696420616c7265616479206d696e6564000000604482015260640161049b565b610bb2868281518110610b7d57634e487b7160e01b600052603260045260246000fd5b6020026020010151848381518110610ba557634e487b7160e01b600052603260045260246000fd5b60200260200101516118eb565b610bfe868281518110610bd557634e487b7160e01b600052603260045260246000fd5b6020026020010151888684815181106106f557634e487b7160e01b600052603260045260246000fd5b600160086000888481518110610c2457634e487b7160e01b600052603260045260246000fd5b6020026020010151815260200190815260200160002060006101000a81548160ff0219169083151502179055508080610c5c90612b92565b915050610ac2565b50505050505050565b600061050a8261190a565b6004546001600160a01b03163314610ca25760405162461bcd60e51b815260040161049b906129b2565b610cac6000611952565b565b60013360009081526005602052604090205460ff166002811115610ce257634e487b7160e01b600052602160045260246000fd5b1015610d305760405162461bcd60e51b815260206004820152601f60248201527f417070726f76616c3a206f6e6c79206d696e657220746f206f70657261746500604482015260640161049b565b610d3c868686846119a4565b60008581526008602052604090205460ff1615610d9b5760405162461bcd60e51b815260206004820152601d60248201527f4e4654313135353a2074686520696420616c7265616479206d696e6564000000604482015260640161049b565b610da585836118eb565b610db0858785611449565b505050600091825250600860205260409020805460ff1916600117905550565b336001600160a01b0383161415610e3b5760405162461bcd60e51b815260206004820152602960248201527f455243313135353a2073657474696e6720617070726f76616c20737461747573604482015268103337b91039b2b63360b91b606482015260840161049b565b3360008181526001602090815260408083206001600160a01b03871680855290835292819020805460ff191686151590811790915590519081529192917f17307eab39ab6107e8899845ad3d59bd9653f200f220920489ca2b5937696c31910160405180910390a35050565b60608083516001600160401b03811115610ed157634e487b7160e01b600052604160045260246000fd5b604051908082528060200260200182016040528015610efa578160200160208202803683370190505b50915083516001600160401b03811115610f2457634e487b7160e01b600052604160045260246000fd5b604051908082528060200260200182016040528015610f4d578160200160208202803683370190505b5090506000845184610f5f9190612af2565b905060005b855181101561101257610f9e868281518110610f9057634e487b7160e01b600052603260045260246000fd5b60200260200101518361158a565b858381518110610fbe57634e487b7160e01b600052603260045260246000fd5b60200260200101858481518110610fe557634e487b7160e01b600052603260045260246000fd5b60209081029190910101919091526001600160a01b0390911690528061100a81612b92565b915050610f64565b50509250929050565b600061050a82611a74565b600081815260036020526040902080546060919061072990612b31565b60608082516001600160401b0381111561106d57634e487b7160e01b600052604160045260246000fd5b604051908082528060200260200182016040528015611096578160200160208202803683370190505b50915082516001600160401b038111156110c057634e487b7160e01b600052604160045260246000fd5b6040519080825280602002602001820160405280156110e9578160200160208202803683370190505b50905060005b83518110156111d85761115384828151811061111b57634e487b7160e01b600052603260045260246000fd5b60200260200101516000908152600660209081526040808320546007909252909120546001600160a01b039091169161ffff90911690565b84838151811061117357634e487b7160e01b600052603260045260246000fd5b6020026020010184848151811061119a57634e487b7160e01b600052603260045260246000fd5b602002602001018261ffff1661ffff16815250826001600160a01b03166001600160a01b0316815250505080806111d090612b92565b9150506110ef565b50915091565b6004546001600160a01b031633146112085760405162461bcd60e51b815260040161049b906129b2565b6001600160a01b0382166000908152600560205260409020805482919060ff1916600183600281111561124b57634e487b7160e01b600052602160045260246000fd5b0217905550816001600160a01b03167fe3db383ed6be73b83dd8d70de0d7a91a57662effa97e0e262f3e67a5ce81dfae826040516112899190612857565b60405180910390a25050565b60006112a082611a74565b806112d057506001600160a01b0380841660009081526001602090815260408083209386168352929052205460ff165b9392505050565b6001600160a01b0385163314806112f357506112f38533611295565b6113515760405162461bcd60e51b815260206004820152602960248201527f455243313135353a2063616c6c6572206973206e6f74206f776e6572206e6f7260448201526808185c1c1c9bdd995960ba1b606482015260840161049b565b6108a88585858585611a7d565b6004546001600160a01b031633146113885760405162461bcd60e51b815260040161049b906129b2565b6001600160a01b0381166113ed5760405162461bcd60e51b815260206004820152602660248201527f4f776e61626c653a206e6577206f776e657220697320746865207a65726f206160448201526564647265737360d01b606482015260840161049b565b6113f681611952565b50565b60006001600160e01b03198216636cdb3d1360e11b148061142a57506001600160e01b031982166303a24d0760e21b145b8061050a57506301ffc9a760e01b6001600160e01b031983161461050a565b611f408161ffff16111561149f5760405162461bcd60e51b815260206004820152601d60248201527f4e4654313135353a20726174696f206d6f7265207468616e2038303030000000604482015260640161049b565b6001600160a01b0382166114ff5760405162461bcd60e51b815260206004820152602160248201527f4e4654313135353a2072656365697665722063616e206e6f74206265207a65726044820152606f60f81b606482015260840161049b565b6000838152600760209081526040808320805461ffff191661ffff8616908117909155600683529281902080546001600160a01b0319166001600160a01b0387169081179091558151878152928301939093528101919091527f611d12c0f8b2d9f4cfb23a30f560228db53e712dfcd34bb5b239e702efc2d22f9060600160405180910390a1505050565b600082815260066020908152604080832054600790925282205482916001600160a01b031690612710906115c29061ffff1686612b12565b61080d9190612af2565b81518351146115ed5760405162461bcd60e51b815260040161049b90612a2e565b6001600160a01b0384166116135760405162461bcd60e51b815260040161049b906128da565b3360005b845181101561171657600085828151811061164257634e487b7160e01b600052603260045260246000fd5b60200260200101519050600085838151811061166e57634e487b7160e01b600052603260045260246000fd5b602090810291909101810151600084815280835260408082206001600160a01b038e1683529093529190912054909150818110156116be5760405162461bcd60e51b815260040161049b90612968565b6000838152602081815260408083206001600160a01b038e8116855292528083208585039055908b168252812080548492906116fb908490612ada565b925050819055505050508061170f90612b92565b9050611617565b50846001600160a01b0316866001600160a01b0316826001600160a01b03167f4a39dc06d4c0dbc64b70af90fd698a233a518aa5d07e595d983b8c0526c8f7fb8787604051611766929190612844565b60405180910390a461177c818787878787611b91565b505050505050565b6001600160a01b0384166117aa5760405162461bcd60e51b815260040161049b90612a76565b81518351146117cb5760405162461bcd60e51b815260040161049b90612a2e565b3360005b8451811015611883578381815181106117f857634e487b7160e01b600052603260045260246000fd5b602002602001015160008087848151811061182357634e487b7160e01b600052603260045260246000fd5b602002602001015181526020019081526020016000206000886001600160a01b03166001600160a01b03168152602001908152602001600020600082825461186b9190612ada565b9091555081905061187b81612b92565b9150506117cf565b50846001600160a01b031660006001600160a01b0316826001600160a01b03167f4a39dc06d4c0dbc64b70af90fd698a233a518aa5d07e595d983b8c0526c8f7fb87876040516118d4929190612844565b60405180910390a46108a881600087878787611b91565b6000828152600360209081526040909120825161071592840190611e1f565b600060015b6001600160a01b03831660009081526005602052604090205460ff16600281111561194a57634e487b7160e01b600052602160045260246000fd5b101592915050565b600480546001600160a01b038381166001600160a01b0319831681179093556040519116919082907f8be0079c531659141344cd1fd0a4f28419497f9722a3daafe3b4186f6b6457e090600090a35050565b6001600160a01b0384166119ca5760405162461bcd60e51b815260040161049b90612a76565b336119e4816000876119db88611cfc565b6108a888611cfc565b6000848152602081815260408083206001600160a01b038916845290915281208054859290611a14908490612ada565b909155505060408051858152602081018590526001600160a01b0380881692600092918516917fc3d58168c5ae7397731d063d5bbf3d657854427343f4c083240f7aacaa2d0f62910160405180910390a46108a881600087878787611d55565b6000600261190f565b6001600160a01b038416611aa35760405162461bcd60e51b815260040161049b906128da565b33611ab38187876119db88611cfc565b6000848152602081815260408083206001600160a01b038a16845290915290205483811015611af45760405162461bcd60e51b815260040161049b90612968565b6000858152602081815260408083206001600160a01b038b8116855292528083208785039055908816825281208054869290611b31908490612ada565b909155505060408051868152602081018690526001600160a01b03808916928a821692918616917fc3d58168c5ae7397731d063d5bbf3d657854427343f4c083240f7aacaa2d0f62910160405180910390a4610c64828888888888611d55565b6001600160a01b0384163b1561177c5760405163bc197c8160e01b81526001600160a01b0385169063bc197c8190611bd590899089908890889088906004016126cd565b602060405180830381600087803b158015611bef57600080fd5b505af1925050508015611c1f575060408051601f3d908101601f19168201909252611c1c91810190612599565b60015b611ccc57611c2b612bd9565b806308c379a01415611c655750611c40612bf1565b80611c4b5750611c67565b8060405162461bcd60e51b815260040161049b919061287f565b505b60405162461bcd60e51b815260206004820152603460248201527f455243313135353a207472616e7366657220746f206e6f6e20455243313135356044820152732932b1b2b4bb32b91034b6b83632b6b2b73a32b960611b606482015260840161049b565b6001600160e01b0319811663bc197c8160e01b14610c645760405162461bcd60e51b815260040161049b90612892565b60408051600180825281830190925260609160009190602080830190803683370190505090508281600081518110611d4457634e487b7160e01b600052603260045260246000fd5b602090810291909101015292915050565b6001600160a01b0384163b1561177c5760405163f23a6e6160e01b81526001600160a01b0385169063f23a6e6190611d99908990899088908890889060040161272b565b602060405180830381600087803b158015611db357600080fd5b505af1925050508015611de3575060408051601f3d908101601f19168201909252611de091810190612599565b60015b611def57611c2b612bd9565b6001600160e01b0319811663f23a6e6160e01b14610c645760405162461bcd60e51b815260040161049b90612892565b828054611e2b90612b31565b90600052602060002090601f016020900481019282611e4d5760008555611e93565b82601f10611e6657805160ff1916838001178555611e93565b82800160010185558215611e93579182015b82811115611e93578251825591602001919060010190611e78565b50611e9f929150611ea3565b5090565b5b80821115611e9f5760008155600101611ea4565b80356001600160a01b0381168114611ecf57600080fd5b919050565b600082601f830112611ee4578081fd5b81356020611ef182612ab7565b604051611efe8282612b66565b8381528281019150858301600585901b87018401881015611f1d578586fd5b855b85811015611f5d5781356001600160401b03811115611f3c578788fd5b611f4a8a87838c010161203f565b8552509284019290840190600101611f1f565b5090979650505050505050565b600082601f830112611f7a578081fd5b81356020611f8782612ab7565b604051611f948282612b66565b8381528281019150858301600585901b87018401881015611fb3578586fd5b855b85811015611f5d57611fc6826120ad565b84529284019290840190600101611fb5565b600082601f830112611fe8578081fd5b81356020611ff582612ab7565b6040516120028282612b66565b8381528281019150858301600585901b87018401881015612021578586fd5b855b85811015611f5d57813584529284019290840190600101612023565b600082601f83011261204f578081fd5b81356001600160401b0381111561206857612068612bc3565b60405161207f601f8301601f191660200182612b66565b818152846020838601011115612093578283fd5b816020850160208301379081016020019190915292915050565b803561ffff81168114611ecf57600080fd5b6000602082840312156120d0578081fd5b6112d082611eb8565b600080604083850312156120eb578081fd5b6120f483611eb8565b915061210260208401611eb8565b90509250929050565b600080600080600060a08688031215612122578081fd5b61212b86611eb8565b945061213960208701611eb8565b935060408601356001600160401b0380821115612154578283fd5b61216089838a01611fd8565b94506060880135915080821115612175578283fd5b61218189838a01611fd8565b93506080880135915080821115612196578283fd5b506121a38882890161203f565b9150509295509295909350565b600080600080600060a086880312156121c7578081fd5b6121d086611eb8565b94506121de60208701611eb8565b9350604086013592506060860135915060808601356001600160401b03811115612206578182fd5b6121a38882890161203f565b60008060008060008060c0878903121561222a578384fd5b61223387611eb8565b955060208701356001600160401b038082111561224e578586fd5b61225a8a838b01611fd8565b9650604089013591508082111561226f578586fd5b61227b8a838b01611fd8565b95506060890135915080821115612290578283fd5b61229c8a838b01611f6a565b945060808901359150808211156122b1578283fd5b6122bd8a838b01611ed4565b935060a08901359150808211156122d2578283fd5b506122df89828a0161203f565b9150509295509295509295565b600080604083850312156122fe578182fd5b61230783611eb8565b91506020830135801515811461231b578182fd5b809150509250929050565b60008060408385031215612338578182fd5b61234183611eb8565b915060208301356003811061231b578182fd5b60008060408385031215612366578182fd5b61236f83611eb8565b946020939093013593505050565b60008060008060008060c08789031215612395578384fd5b61239e87611eb8565b955060208701359450604087013593506123ba606088016120ad565b925060808701356001600160401b03808211156123d5578384fd5b6122bd8a838b0161203f565b600080604083850312156123f3578182fd5b82356001600160401b0380821115612409578384fd5b818501915085601f83011261241c578384fd5b8135602061242982612ab7565b6040516124368282612b66565b8381528281019150858301600585901b870184018b1015612455578889fd5b8896505b8487101561247e5761246a81611eb8565b835260019690960195918301918301612459565b5096505086013592505080821115612494578283fd5b506124a185828601611fd8565b9150509250929050565b6000602082840312156124bc578081fd5b81356001600160401b038111156124d1578182fd5b6124dd84828501611fd8565b949350505050565b600080604083850312156124f7578182fd5b82356001600160401b038082111561250d578384fd5b61251986838701611fd8565b9350602085013591508082111561252e578283fd5b506124a185828601611f6a565b6000806040838503121561254d578182fd5b82356001600160401b03811115612562578283fd5b61256e85828601611fd8565b95602094909401359450505050565b60006020828403121561258e578081fd5b81356112d081612c7a565b6000602082840312156125aa578081fd5b81516112d081612c7a565b6000602082840312156125c6578081fd5b5035919050565b600080604083850312156125df578182fd5b82359150612102602084016120ad565b60008060408385031215612601578182fd5b50508035926020909101359150565b6000815180845260208085019450808401835b838110156126485781516001600160a01b031687529582019590820190600101612623565b509495945050505050565b6000815180845260208085019450808401835b8381101561264857815187529582019590820190600101612666565b60008151808452815b818110156126a75760208185018101518683018201520161268b565b818111156126b85782602083870101525b50601f01601f19169290920160200192915050565b6001600160a01b0386811682528516602082015260a0604082018190526000906126f990830186612653565b828103606084015261270b8186612653565b9050828103608084015261271f8185612682565b98975050505050505050565b6001600160a01b03868116825285166020820152604081018490526060810183905260a06080820181905260009061276590830184612682565b979650505050505050565b6040815260006127836040830185612610565b828103602084810191909152845180835285820192820190845b81811015611f5d57845161ffff168352938301939183019160010161279d565b6040815260006127d06040830185612610565b82810360208401526127e28185612653565b95945050505050565b6020808252825182820181905260009190848201906040850190845b81811015612825578351151583529284019291840191600101612807565b50909695505050505050565b6020815260006112d06020830184612653565b6040815260006127d06040830185612653565b602081016003831061287957634e487b7160e01b600052602160045260246000fd5b91905290565b6020815260006112d06020830184612682565b60208082526028908201527f455243313135353a204552433131353552656365697665722072656a656374656040820152676420746f6b656e7360c01b606082015260800190565b60208082526025908201527f455243313135353a207472616e7366657220746f20746865207a65726f206164604082015264647265737360d81b606082015260800190565b60208082526029908201527f4e4654313135353a2063616c6c6572206973206e6f74206f776e6572206e6f7260408201526808185c1c1c9bdd995960ba1b606082015260800190565b6020808252602a908201527f455243313135353a20696e73756666696369656e742062616c616e636520666f60408201526939103a3930b739b332b960b11b606082015260800190565b6020808252818101527f4f776e61626c653a2063616c6c6572206973206e6f7420746865206f776e6572604082015260600190565b60208082526027908201527f4e4654313135353a2069647320616e6420726174696f73206c656e677468206d6040820152660d2e6dac2e8c6d60cb1b606082015260800190565b60208082526028908201527f455243313135353a2069647320616e6420616d6f756e7473206c656e677468206040820152670dad2e6dac2e8c6d60c31b606082015260800190565b60208082526021908201527f455243313135353a206d696e7420746f20746865207a65726f206164647265736040820152607360f81b606082015260800190565b60006001600160401b03821115612ad057612ad0612bc3565b5060051b60200190565b60008219821115612aed57612aed612bad565b500190565b600082612b0d57634e487b7160e01b81526012600452602481fd5b500490565b6000816000190483118215151615612b2c57612b2c612bad565b500290565b600181811c90821680612b4557607f821691505b602082108114156105fb57634e487b7160e01b600052602260045260246000fd5b601f8201601f191681016001600160401b0381118282101715612b8b57612b8b612bc3565b6040525050565b6000600019821415612ba657612ba6612bad565b5060010190565b634e487b7160e01b600052601160045260246000fd5b634e487b7160e01b600052604160045260246000fd5b600060033d1115612bee57600481823e5160e01c5b90565b600060443d1015612bff5790565b6040516003193d81016004833e81513d6001600160401b038160248401118184111715612c2e57505050505090565b8285019150815181811115612c465750505050505090565b843d8701016020828501011115612c605750505050505090565b612c6f60208286010187612b66565b509095945050505050565b6001600160e01b0319811681146113f657600080fdfea26469706673582212203d52216fafbcb65ffa8f431a3e85fffe096c8edafdca5c48f67c7031e88d89a164736f6c63430008040033",
  "devdoc": {
    "kind": "dev",
    "methods": {
      "balanceOf(address,uint256)": {
        "details": "See {IERC1155-balanceOf}. Requirements: - `account` cannot be the zero address."
      },
      "balanceOfBatch(address[],uint256[])": {
        "details": "See {IERC1155-balanceOfBatch}. Requirements: - `accounts` and `ids` must have the same length."
      },
      "owner()": {
        "details": "Returns the address of the current owner."
      },
      "renounceOwnership()": {
        "details": "Leaves the contract without owner. It will not be possible to call `onlyOwner` functions anymore. Can only be called by the current owner. NOTE: Renouncing ownership will leave the contract without an owner, thereby removing any functionality that is only available to the owner."
      },
      "safeBatchTransferFrom(address,address,uint256[],uint256[],bytes)": {
        "details": "See {IERC1155-safeBatchTransferFrom}."
      },
      "safeTransferFrom(address,address,uint256,uint256,bytes)": {
        "details": "See {IERC1155-safeTransferFrom}."
      },
      "setApprovalForAll(address,bool)": {
        "details": "See {IERC1155-setApprovalForAll}."
      },
      "transferOwnership(address)": {
        "details": "Transfers ownership of the contract to a new account (`newOwner`). Can only be called by the current owner."
      },
      "uri(uint256)": {
        "details": "See {IERC1155MetadataURI-uri}. This implementation returns the same URI for *all* token types. It relies on the token type ID substitution mechanism https://eips.ethereum.org/EIPS/eip-1155#metadata[defined in the EIP]. Clients calling this function must replace the `\\{id\\}` substring with the actual token type ID."
      }
    },
    "version": 1
  },
  "userdoc": {
    "kind": "user",
    "methods": {},
    "version": 1
  },
  "storageLayout": {
    "storage": [
      {
        "astId": 141,
        "contract": "contracts/NFT1155.sol:NFT1155",
        "label": "_balances",
        "offset": 0,
        "slot": "0",
        "type": "t_mapping(t_uint256,t_mapping(t_address,t_uint256))"
      },
      {
        "astId": 147,
        "contract": "contracts/NFT1155.sol:NFT1155",
        "label": "_operatorApprovals",
        "offset": 0,
        "slot": "1",
        "type": "t_mapping(t_address,t_mapping(t_address,t_bool))"
      },
      {
        "astId": 149,
        "contract": "contracts/NFT1155.sol:NFT1155",
        "label": "_uri",
        "offset": 0,
        "slot": "2",
        "type": "t_string_storage"
      },
      {
        "astId": 4342,
        "contract": "contracts/NFT1155.sol:NFT1155",
        "label": "tokenURIs",
        "offset": 0,
        "slot": "3",
        "type": "t_mapping(t_uint256,t_string_storage)"
      },
      {
        "astId": 7,
        "contract": "contracts/NFT1155.sol:NFT1155",
        "label": "_owner",
        "offset": 0,
        "slot": "4",
        "type": "t_address"
      },
      {
        "astId": 5008,
        "contract": "contracts/NFT1155.sol:NFT1155",
        "label": "approvals",
        "offset": 0,
        "slot": "5",
        "type": "t_mapping(t_address,t_enum(Level)5001)"
      },
      {
        "astId": 3226,
        "contract": "contracts/NFT1155.sol:NFT1155",
        "label": "receivers",
        "offset": 0,
        "slot": "6",
        "type": "t_mapping(t_uint256,t_address)"
      },
      {
        "astId": 3230,
        "contract": "contracts/NFT1155.sol:NFT1155",
        "label": "ratios",
        "offset": 0,
        "slot": "7",
        "type": "t_mapping(t_uint256,t_uint16)"
      },
      {
        "astId": 3234,
        "contract": "contracts/NFT1155.sol:NFT1155",
        "label": "mineds",
        "offset": 0,
        "slot": "8",
        "type": "t_mapping(t_uint256,t_bool)"
      }
    ],
    "types": {
      "t_address": {
        "encoding": "inplace",
        "label": "address",
        "numberOfBytes": "20"
      },
      "t_bool": {
        "encoding": "inplace",
        "label": "bool",
        "numberOfBytes": "1"
      },
      "t_enum(Level)5001": {
        "encoding": "inplace",
        "label": "enum Level",
        "numberOfBytes": "1"
      },
      "t_mapping(t_address,t_bool)": {
        "encoding": "mapping",
        "key": "t_address",
        "label": "mapping(address => bool)",
        "numberOfBytes": "32",
        "value": "t_bool"
      },
      "t_mapping(t_address,t_enum(Level)5001)": {
        "encoding": "mapping",
        "key": "t_address",
        "label": "mapping(address => enum Level)",
        "numberOfBytes": "32",
        "value": "t_enum(Level)5001"
      },
      "t_mapping(t_address,t_mapping(t_address,t_bool))": {
        "encoding": "mapping",
        "key": "t_address",
        "label": "mapping(address => mapping(address => bool))",
        "numberOfBytes": "32",
        "value": "t_mapping(t_address,t_bool)"
      },
      "t_mapping(t_address,t_uint256)": {
        "encoding": "mapping",
        "key": "t_address",
        "label": "mapping(address => uint256)",
        "numberOfBytes": "32",
        "value": "t_uint256"
      },
      "t_mapping(t_uint256,t_address)": {
        "encoding": "mapping",
        "key": "t_uint256",
        "label": "mapping(uint256 => address)",
        "numberOfBytes": "32",
        "value": "t_address"
      },
      "t_mapping(t_uint256,t_bool)": {
        "encoding": "mapping",
        "key": "t_uint256",
        "label": "mapping(uint256 => bool)",
        "numberOfBytes": "32",
        "value": "t_bool"
      },
      "t_mapping(t_uint256,t_mapping(t_address,t_uint256))": {
        "encoding": "mapping",
        "key": "t_uint256",
        "label": "mapping(uint256 => mapping(address => uint256))",
        "numberOfBytes": "32",
        "value": "t_mapping(t_address,t_uint256)"
      },
      "t_mapping(t_uint256,t_string_storage)": {
        "encoding": "mapping",
        "key": "t_uint256",
        "label": "mapping(uint256 => string)",
        "numberOfBytes": "32",
        "value": "t_string_storage"
      },
      "t_mapping(t_uint256,t_uint16)": {
        "encoding": "mapping",
        "key": "t_uint256",
        "label": "mapping(uint256 => uint16)",
        "numberOfBytes": "32",
        "value": "t_uint16"
      },
      "t_string_storage": {
        "encoding": "bytes",
        "label": "string",
        "numberOfBytes": "32"
      },
      "t_uint16": {
        "encoding": "inplace",
        "label": "uint16",
        "numberOfBytes": "2"
      },
      "t_uint256": {
        "encoding": "inplace",
        "label": "uint256",
        "numberOfBytes": "32"
      }
    }
  }
}